{
  "_format": "hh-sol-artifact-1",
  "contractName": "ChainBattles",
  "sourceName": "contracts/ChainBattles.sol",
  "abi": [
    {
      "inputs": [],
      "stateMutability": "nonpayable",
      "type": "constructor"
    },
    {
      "anonymous": false,
      "inputs": [
        {
          "indexed": true,
          "internalType": "address",
          "name": "owner",
          "type": "address"
        },
        {
          "indexed": true,
          "internalType": "address",
          "name": "approved",
          "type": "address"
        },
        {
          "indexed": true,
          "internalType": "uint256",
          "name": "tokenId",
          "type": "uint256"
        }
      ],
      "name": "Approval",
      "type": "event"
    },
    {
      "anonymous": false,
      "inputs": [
        {
          "indexed": true,
          "internalType": "address",
          "name": "owner",
          "type": "address"
        },
        {
          "indexed": true,
          "internalType": "address",
          "name": "operator",
          "type": "address"
        },
        {
          "indexed": false,
          "internalType": "bool",
          "name": "approved",
          "type": "bool"
        }
      ],
      "name": "ApprovalForAll",
      "type": "event"
    },
    {
      "anonymous": false,
      "inputs": [
        {
          "indexed": true,
          "internalType": "address",
          "name": "from",
          "type": "address"
        },
        {
          "indexed": true,
          "internalType": "address",
          "name": "to",
          "type": "address"
        },
        {
          "indexed": true,
          "internalType": "uint256",
          "name": "tokenId",
          "type": "uint256"
        }
      ],
      "name": "Transfer",
      "type": "event"
    },
    {
      "inputs": [
        {
          "internalType": "address",
          "name": "to",
          "type": "address"
        },
        {
          "internalType": "uint256",
          "name": "tokenId",
          "type": "uint256"
        }
      ],
      "name": "approve",
      "outputs": [],
      "stateMutability": "nonpayable",
      "type": "function"
    },
    {
      "inputs": [
        {
          "internalType": "address",
          "name": "owner",
          "type": "address"
        }
      ],
      "name": "balanceOf",
      "outputs": [
        {
          "internalType": "uint256",
          "name": "",
          "type": "uint256"
        }
      ],
      "stateMutability": "view",
      "type": "function"
    },
    {
      "inputs": [
        {
          "internalType": "uint256",
          "name": "tokenId",
          "type": "uint256"
        }
      ],
      "name": "generateCharacter",
      "outputs": [
        {
          "internalType": "string",
          "name": "",
          "type": "string"
        }
      ],
      "stateMutability": "view",
      "type": "function"
    },
    {
      "inputs": [
        {
          "internalType": "uint256",
          "name": "tokenId",
          "type": "uint256"
        }
      ],
      "name": "getApproved",
      "outputs": [
        {
          "internalType": "address",
          "name": "",
          "type": "address"
        }
      ],
      "stateMutability": "view",
      "type": "function"
    },
    {
      "inputs": [
        {
          "internalType": "uint256",
          "name": "tokenId",
          "type": "uint256"
        }
      ],
      "name": "getLevel",
      "outputs": [
        {
          "internalType": "string",
          "name": "",
          "type": "string"
        }
      ],
      "stateMutability": "view",
      "type": "function"
    },
    {
      "inputs": [
        {
          "internalType": "uint256",
          "name": "tokenId",
          "type": "uint256"
        }
      ],
      "name": "getLife",
      "outputs": [
        {
          "internalType": "string",
          "name": "",
          "type": "string"
        }
      ],
      "stateMutability": "view",
      "type": "function"
    },
    {
      "inputs": [
        {
          "internalType": "uint256",
          "name": "tokenId",
          "type": "uint256"
        }
      ],
      "name": "getSpeed",
      "outputs": [
        {
          "internalType": "string",
          "name": "",
          "type": "string"
        }
      ],
      "stateMutability": "view",
      "type": "function"
    },
    {
      "inputs": [
        {
          "internalType": "uint256",
          "name": "tokenId",
          "type": "uint256"
        }
      ],
      "name": "getStrength",
      "outputs": [
        {
          "internalType": "string",
          "name": "",
          "type": "string"
        }
      ],
      "stateMutability": "view",
      "type": "function"
    },
    {
      "inputs": [
        {
          "internalType": "uint256",
          "name": "tokenId",
          "type": "uint256"
        }
      ],
      "name": "getTokenURI",
      "outputs": [
        {
          "internalType": "string",
          "name": "",
          "type": "string"
        }
      ],
      "stateMutability": "view",
      "type": "function"
    },
    {
      "inputs": [
        {
          "internalType": "address",
          "name": "owner",
          "type": "address"
        },
        {
          "internalType": "address",
          "name": "operator",
          "type": "address"
        }
      ],
      "name": "isApprovedForAll",
      "outputs": [
        {
          "internalType": "bool",
          "name": "",
          "type": "bool"
        }
      ],
      "stateMutability": "view",
      "type": "function"
    },
    {
      "inputs": [],
      "name": "mint",
      "outputs": [],
      "stateMutability": "nonpayable",
      "type": "function"
    },
    {
      "inputs": [],
      "name": "name",
      "outputs": [
        {
          "internalType": "string",
          "name": "",
          "type": "string"
        }
      ],
      "stateMutability": "view",
      "type": "function"
    },
    {
      "inputs": [
        {
          "internalType": "uint256",
          "name": "tokenId",
          "type": "uint256"
        }
      ],
      "name": "ownerOf",
      "outputs": [
        {
          "internalType": "address",
          "name": "",
          "type": "address"
        }
      ],
      "stateMutability": "view",
      "type": "function"
    },
    {
      "inputs": [
        {
          "internalType": "uint256",
          "name": "number",
          "type": "uint256"
        }
      ],
      "name": "random",
      "outputs": [
        {
          "internalType": "uint256",
          "name": "",
          "type": "uint256"
        }
      ],
      "stateMutability": "view",
      "type": "function"
    },
    {
      "inputs": [
        {
          "internalType": "address",
          "name": "from",
          "type": "address"
        },
        {
          "internalType": "address",
          "name": "to",
          "type": "address"
        },
        {
          "internalType": "uint256",
          "name": "tokenId",
          "type": "uint256"
        }
      ],
      "name": "safeTransferFrom",
      "outputs": [],
      "stateMutability": "nonpayable",
      "type": "function"
    },
    {
      "inputs": [
        {
          "internalType": "address",
          "name": "from",
          "type": "address"
        },
        {
          "internalType": "address",
          "name": "to",
          "type": "address"
        },
        {
          "internalType": "uint256",
          "name": "tokenId",
          "type": "uint256"
        },
        {
          "internalType": "bytes",
          "name": "_data",
          "type": "bytes"
        }
      ],
      "name": "safeTransferFrom",
      "outputs": [],
      "stateMutability": "nonpayable",
      "type": "function"
    },
    {
      "inputs": [
        {
          "internalType": "address",
          "name": "operator",
          "type": "address"
        },
        {
          "internalType": "bool",
          "name": "approved",
          "type": "bool"
        }
      ],
      "name": "setApprovalForAll",
      "outputs": [],
      "stateMutability": "nonpayable",
      "type": "function"
    },
    {
      "inputs": [
        {
          "internalType": "bytes4",
          "name": "interfaceId",
          "type": "bytes4"
        }
      ],
      "name": "supportsInterface",
      "outputs": [
        {
          "internalType": "bool",
          "name": "",
          "type": "bool"
        }
      ],
      "stateMutability": "view",
      "type": "function"
    },
    {
      "inputs": [],
      "name": "symbol",
      "outputs": [
        {
          "internalType": "string",
          "name": "",
          "type": "string"
        }
      ],
      "stateMutability": "view",
      "type": "function"
    },
    {
      "inputs": [
        {
          "internalType": "uint256",
          "name": "",
          "type": "uint256"
        }
      ],
      "name": "tokenIdToLevels",
      "outputs": [
        {
          "internalType": "uint256",
          "name": "level",
          "type": "uint256"
        },
        {
          "internalType": "uint256",
          "name": "speed",
          "type": "uint256"
        },
        {
          "internalType": "uint256",
          "name": "strength",
          "type": "uint256"
        },
        {
          "internalType": "uint256",
          "name": "life",
          "type": "uint256"
        }
      ],
      "stateMutability": "view",
      "type": "function"
    },
    {
      "inputs": [
        {
          "internalType": "uint256",
          "name": "tokenId",
          "type": "uint256"
        }
      ],
      "name": "tokenURI",
      "outputs": [
        {
          "internalType": "string",
          "name": "",
          "type": "string"
        }
      ],
      "stateMutability": "view",
      "type": "function"
    },
    {
      "inputs": [
        {
          "internalType": "address",
          "name": "from",
          "type": "address"
        },
        {
          "internalType": "address",
          "name": "to",
          "type": "address"
        },
        {
          "internalType": "uint256",
          "name": "tokenId",
          "type": "uint256"
        }
      ],
      "name": "transferFrom",
      "outputs": [],
      "stateMutability": "nonpayable",
      "type": "function"
    }
  ],
  "bytecode": "0x60806040523480156200001157600080fd5b506040518060400160405280600d81526020017f436861696e20426174746c6573000000000000000000000000000000000000008152506040518060400160405280600581526020017f4342544c53000000000000000000000000000000000000000000000000000000815250816000908051906020019062000096929190620000b8565b508060019080519060200190620000af929190620000b8565b505050620001cd565b828054620000c69062000168565b90600052602060002090601f016020900481019282620000ea576000855562000136565b82601f106200010557805160ff191683800117855562000136565b8280016001018555821562000136579182015b828111156200013557825182559160200191906001019062000118565b5b50905062000145919062000149565b5090565b5b80821115620001645760008160009055506001016200014a565b5090565b600060028204905060018216806200018157607f821691505b602082108114156200019857620001976200019e565b5b50919050565b7f4e487b7100000000000000000000000000000000000000000000000000000000600052602260045260246000fd5b613dd480620001dd6000396000f3fe608060405234801561001057600080fd5b50600436106101425760003560e01c80636352211e116100b8578063b863bd371161007c578063b863bd37146103ad578063b88d4fde146103dd578063c6a4342f146103f9578063c87b56dd1461042c578063e53fbda61461045c578063e985e9c51461048c57610142565b80636352211e146102e357806370a082311461031357806386481d401461034357806395d89b4114610373578063a22cb4651461039157610142565b806311251f1c1161010a57806311251f1c146102115780631249c58b1461024157806323b872dd1461024b5780633bb3a24d1461026757806342842e0e146102975780634b93f753146102b357610142565b806301ffc9a71461014757806306fdde0314610177578063081812fc14610195578063095ea7b3146101c55780630daefed5146101e1575b600080fd5b610161600480360381019061015c91906121c3565b6104bc565b60405161016e9190612b40565b60405180910390f35b61017f61059e565b60405161018c9190612b5b565b60405180910390f35b6101af60048036038101906101aa9190612215565b610630565b6040516101bc9190612ad9565b60405180910390f35b6101df60048036038101906101da9190612187565b6106b5565b005b6101fb60048036038101906101f69190612215565b6107cd565b6040516102089190612b5b565b60405180910390f35b61022b60048036038101906102269190612215565b610849565b6040516102389190612b5b565b60405180910390f35b610249610877565b005b61026560048036038101906102609190612081565b610921565b005b610281600480360381019061027c9190612215565b610981565b60405161028e9190612b5b565b60405180910390f35b6102b160048036038101906102ac9190612081565b6109e9565b005b6102cd60048036038101906102c89190612215565b610a09565b6040516102da9190612b5b565b60405180910390f35b6102fd60048036038101906102f89190612215565b610a37565b60405161030a9190612ad9565b60405180910390f35b61032d6004803603810190610328919061201c565b610ae9565b60405161033a9190612d7d565b60405180910390f35b61035d60048036038101906103589190612215565b610ba1565b60405161036a9190612b5b565b60405180910390f35b61037b610bcf565b6040516103889190612b5b565b60405180910390f35b6103ab60048036038101906103a6919061214b565b610c61565b005b6103c760048036038101906103c29190612215565b610c77565b6040516103d49190612d7d565b60405180910390f35b6103f760048036038101906103f291906120d0565b610cb9565b005b610413600480360381019061040e9190612215565b610d1b565b6040516104239493929190612d98565b60405180910390f35b61044660048036038101906104419190612215565b610d4b565b6040516104539190612b5b565b60405180910390f35b61047660048036038101906104719190612215565b610e9d565b6040516104839190612b5b565b60405180910390f35b6104a660048036038101906104a19190612045565b610ecb565b6040516104b39190612b40565b60405180910390f35b60007f80ac58cd000000000000000000000000000000000000000000000000000000007bffffffffffffffffffffffffffffffffffffffffffffffffffffffff1916827bffffffffffffffffffffffffffffffffffffffffffffffffffffffff1916148061058757507f5b5e139f000000000000000000000000000000000000000000000000000000007bffffffffffffffffffffffffffffffffffffffffffffffffffffffff1916827bffffffffffffffffffffffffffffffffffffffffffffffffffffffff1916145b80610597575061059682610f5f565b5b9050919050565b6060600080546105ad90613041565b80601f01602080910402602001604051908101604052809291908181526020018280546105d990613041565b80156106265780601f106105fb57610100808354040283529160200191610626565b820191906000526020600020905b81548152906001019060200180831161060957829003601f168201915b5050505050905090565b600061063b82610fc9565b61067a576040517f08c379a000000000000000000000000000000000000000000000000000000000815260040161067190612cfd565b60405180910390fd5b6004600083815260200190815260200160002060009054906101000a900473ffffffffffffffffffffffffffffffffffffffff169050919050565b60006106c082610a37565b90508073ffffffffffffffffffffffffffffffffffffffff168373ffffffffffffffffffffffffffffffffffffffff161415610731576040517f08c379a000000000000000000000000000000000000000000000000000000000815260040161072890612d3d565b60405180910390fd5b8073ffffffffffffffffffffffffffffffffffffffff16610750611035565b73ffffffffffffffffffffffffffffffffffffffff16148061077f575061077e81610779611035565b610ecb565b5b6107be576040517f08c379a00000000000000000000000000000000000000000000000000000000081526004016107b590612c3d565b60405180910390fd5b6107c8838361103d565b505050565b606060006107da83610ba1565b6107e384610a09565b6107ec85610e9d565b6107f586610849565b60405160200161080894939291906128d8565b6040516020818303038152906040529050610822816110f6565b6040516020016108329190612a7a565b604051602081830303815290604052915050919050565b606060006008600084815260200190815260200160002060030154905061086f81611280565b915050919050565b610881600761142d565b600061088d6007611443565b90506108993382611451565b6040518060800160405280600081526020016108b56064610c77565b81526020016108c46064610c77565b81526020016064815250600860008381526020019081526020016000206000820151816000015560208201518160010155604082015181600201556060820151816003015590505061091e8161091983610981565b61146f565b50565b61093261092c611035565b826114e3565b610971576040517f08c379a000000000000000000000000000000000000000000000000000000000815260040161096890612d5d565b60405180910390fd5b61097c8383836115c1565b505050565b6060600061098e83611280565b610997846107cd565b6040516020016109a89291906129e7565b60405160208183030381529060405290506109c2816110f6565b6040516020016109d29190612a58565b604051602081830303815290604052915050919050565b610a0483838360405180602001604052806000815250610cb9565b505050565b6060600060086000848152602001908152602001600020600101549050610a2f81611280565b915050919050565b6000806002600084815260200190815260200160002060009054906101000a900473ffffffffffffffffffffffffffffffffffffffff169050600073ffffffffffffffffffffffffffffffffffffffff168173ffffffffffffffffffffffffffffffffffffffff161415610ae0576040517f08c379a0000000000000000000000000000000000000000000000000000000008152600401610ad790612c7d565b60405180910390fd5b80915050919050565b60008073ffffffffffffffffffffffffffffffffffffffff168273ffffffffffffffffffffffffffffffffffffffff161415610b5a576040517f08c379a0000000000000000000000000000000000000000000000000000000008152600401610b5190612c5d565b60405180910390fd5b600360008373ffffffffffffffffffffffffffffffffffffffff1673ffffffffffffffffffffffffffffffffffffffff168152602001908152602001600020549050919050565b6060600060086000848152602001908152602001600020600001549050610bc781611280565b915050919050565b606060018054610bde90613041565b80601f0160208091040260200160405190810160405280929190818152602001828054610c0a90613041565b8015610c575780601f10610c2c57610100808354040283529160200191610c57565b820191906000526020600020905b815481529060010190602001808311610c3a57829003601f168201915b5050505050905090565b610c73610c6c611035565b8383611828565b5050565b600081424433604051602001610c8f93929190612a9c565b6040516020818303038152906040528051906020012060001c610cb2919061311b565b9050919050565b610cca610cc4611035565b836114e3565b610d09576040517f08c379a0000000000000000000000000000000000000000000000000000000008152600401610d0090612d5d565b60405180910390fd5b610d1584848484611995565b50505050565b60086020528060005260406000206000915090508060000154908060010154908060020154908060030154905084565b6060610d5682610fc9565b610d95576040517f08c379a0000000000000000000000000000000000000000000000000000000008152600401610d8c90612cdd565b60405180910390fd5b6000600660008481526020019081526020016000208054610db590613041565b80601f0160208091040260200160405190810160405280929190818152602001828054610de190613041565b8015610e2e5780601f10610e0357610100808354040283529160200191610e2e565b820191906000526020600020905b815481529060010190602001808311610e1157829003601f168201915b505050505090506000610e3f6119f1565b9050600081511415610e55578192505050610e98565b600082511115610e8a578082604051602001610e729291906128b4565b60405160208183030381529060405292505050610e98565b610e9384611a08565b925050505b919050565b6060600060086000848152602001908152602001600020600201549050610ec381611280565b915050919050565b6000600560008473ffffffffffffffffffffffffffffffffffffffff1673ffffffffffffffffffffffffffffffffffffffff16815260200190815260200160002060008373ffffffffffffffffffffffffffffffffffffffff1673ffffffffffffffffffffffffffffffffffffffff16815260200190815260200160002060009054906101000a900460ff16905092915050565b60007f01ffc9a7000000000000000000000000000000000000000000000000000000007bffffffffffffffffffffffffffffffffffffffffffffffffffffffff1916827bffffffffffffffffffffffffffffffffffffffffffffffffffffffff1916149050919050565b60008073ffffffffffffffffffffffffffffffffffffffff166002600084815260200190815260200160002060009054906101000a900473ffffffffffffffffffffffffffffffffffffffff1673ffffffffffffffffffffffffffffffffffffffff1614159050919050565b600033905090565b816004600083815260200190815260200160002060006101000a81548173ffffffffffffffffffffffffffffffffffffffff021916908373ffffffffffffffffffffffffffffffffffffffff160217905550808273ffffffffffffffffffffffffffffffffffffffff166110b083610a37565b73ffffffffffffffffffffffffffffffffffffffff167f8c5be1e5ebec7d5bd14f71427d1e84f3dd0314c0f7b2291e5b200ac8c7c3b92560405160405180910390a45050565b60606000825114156111195760405180602001604052806000815250905061127b565b6000604051806060016040528060408152602001613d5f60409139905060006003600285516111489190612e76565b6111529190612ecc565b600461115e9190612efd565b67ffffffffffffffff81111561119d577f4e487b7100000000000000000000000000000000000000000000000000000000600052604160045260246000fd5b6040519080825280601f01601f1916602001820160405280156111cf5781602001600182028036833780820191505090505b509050600182016020820185865187015b8082101561123b576003820191508151603f8160121c168501518453600184019350603f81600c1c168501518453600184019350603f8160061c168501518453600184019350603f81168501518453600184019350506111e0565b5050600386510660018114611257576002811461126a57611272565b603d6001830353603d6002830353611272565b603d60018303535b50505080925050505b919050565b606060008214156112c8576040518060400160405280600181526020017f30000000000000000000000000000000000000000000000000000000000000008152509050611428565b600082905060005b600082146112fa5780806112e3906130a4565b915050600a826112f39190612ecc565b91506112d0565b60008167ffffffffffffffff81111561133c577f4e487b7100000000000000000000000000000000000000000000000000000000600052604160045260246000fd5b6040519080825280601f01601f19166020018201604052801561136e5781602001600182028036833780820191505090505b5090505b60008514611421576001826113879190612f57565b9150600a85611396919061311b565b60306113a29190612e76565b60f81b8183815181106113de577f4e487b7100000000000000000000000000000000000000000000000000000000600052603260045260246000fd5b60200101907effffffffffffffffffffffffffffffffffffffffffffffffffffffffffffff1916908160001a905350600a8561141a9190612ecc565b9450611372565b8093505050505b919050565b6001816000016000828254019250508190555050565b600081600001549050919050565b61146b828260405180602001604052806000815250611aaf565b5050565b61147882610fc9565b6114b7576040517f08c379a00000000000000000000000000000000000000000000000000000000081526004016114ae90612c9d565b60405180910390fd5b806006600084815260200190815260200160002090805190602001906114de929190611ea8565b505050565b60006114ee82610fc9565b61152d576040517f08c379a000000000000000000000000000000000000000000000000000000000815260040161152490612c1d565b60405180910390fd5b600061153883610a37565b90508073ffffffffffffffffffffffffffffffffffffffff168473ffffffffffffffffffffffffffffffffffffffff16148061157a57506115798185610ecb565b5b806115b857508373ffffffffffffffffffffffffffffffffffffffff166115a084610630565b73ffffffffffffffffffffffffffffffffffffffff16145b91505092915050565b8273ffffffffffffffffffffffffffffffffffffffff166115e182610a37565b73ffffffffffffffffffffffffffffffffffffffff1614611637576040517f08c379a000000000000000000000000000000000000000000000000000000000815260040161162e90612b9d565b60405180910390fd5b600073ffffffffffffffffffffffffffffffffffffffff168273ffffffffffffffffffffffffffffffffffffffff1614156116a7576040517f08c379a000000000000000000000000000000000000000000000000000000000815260040161169e90612bdd565b60405180910390fd5b6116b2838383611b0a565b6116bd60008261103d565b6001600360008573ffffffffffffffffffffffffffffffffffffffff1673ffffffffffffffffffffffffffffffffffffffff168152602001908152602001600020600082825461170d9190612f57565b925050819055506001600360008473ffffffffffffffffffffffffffffffffffffffff1673ffffffffffffffffffffffffffffffffffffffff16815260200190815260200160002060008282546117649190612e76565b92505081905550816002600083815260200190815260200160002060006101000a81548173ffffffffffffffffffffffffffffffffffffffff021916908373ffffffffffffffffffffffffffffffffffffffff160217905550808273ffffffffffffffffffffffffffffffffffffffff168473ffffffffffffffffffffffffffffffffffffffff167fddf252ad1be2c89b69c2b068fc378daa952ba7f163c4a11628f55a4df523b3ef60405160405180910390a4611823838383611b0f565b505050565b8173ffffffffffffffffffffffffffffffffffffffff168373ffffffffffffffffffffffffffffffffffffffff161415611897576040517f08c379a000000000000000000000000000000000000000000000000000000000815260040161188e90612bfd565b60405180910390fd5b80600560008573ffffffffffffffffffffffffffffffffffffffff1673ffffffffffffffffffffffffffffffffffffffff16815260200190815260200160002060008473ffffffffffffffffffffffffffffffffffffffff1673ffffffffffffffffffffffffffffffffffffffff16815260200190815260200160002060006101000a81548160ff0219169083151502179055508173ffffffffffffffffffffffffffffffffffffffff168373ffffffffffffffffffffffffffffffffffffffff167f17307eab39ab6107e8899845ad3d59bd9653f200f220920489ca2b5937696c31836040516119889190612b40565b60405180910390a3505050565b6119a08484846115c1565b6119ac84848484611b14565b6119eb576040517f08c379a00000000000000000000000000000000000000000000000000000000081526004016119e290612b7d565b60405180910390fd5b50505050565b606060405180602001604052806000815250905090565b6060611a1382610fc9565b611a52576040517f08c379a0000000000000000000000000000000000000000000000000000000008152600401611a4990612d1d565b60405180910390fd5b6000611a5c6119f1565b90506000815111611a7c5760405180602001604052806000815250611aa7565b80611a8684611280565b604051602001611a979291906128b4565b6040516020818303038152906040525b915050919050565b611ab98383611cab565b611ac66000848484611b14565b611b05576040517f08c379a0000000000000000000000000000000000000000000000000000000008152600401611afc90612b7d565b60405180910390fd5b505050565b505050565b505050565b6000611b358473ffffffffffffffffffffffffffffffffffffffff16611e85565b15611c9e578373ffffffffffffffffffffffffffffffffffffffff1663150b7a02611b5e611035565b8786866040518563ffffffff1660e01b8152600401611b809493929190612af4565b602060405180830381600087803b158015611b9a57600080fd5b505af1925050508015611bcb57506040513d601f19601f82011682018060405250810190611bc891906121ec565b60015b611c4e573d8060008114611bfb576040519150601f19603f3d011682016040523d82523d6000602084013e611c00565b606091505b50600081511415611c46576040517f08c379a0000000000000000000000000000000000000000000000000000000008152600401611c3d90612b7d565b60405180910390fd5b805181602001fd5b63150b7a0260e01b7bffffffffffffffffffffffffffffffffffffffffffffffffffffffff1916817bffffffffffffffffffffffffffffffffffffffffffffffffffffffff191614915050611ca3565b600190505b949350505050565b600073ffffffffffffffffffffffffffffffffffffffff168273ffffffffffffffffffffffffffffffffffffffff161415611d1b576040517f08c379a0000000000000000000000000000000000000000000000000000000008152600401611d1290612cbd565b60405180910390fd5b611d2481610fc9565b15611d64576040517f08c379a0000000000000000000000000000000000000000000000000000000008152600401611d5b90612bbd565b60405180910390fd5b611d7060008383611b0a565b6001600360008473ffffffffffffffffffffffffffffffffffffffff1673ffffffffffffffffffffffffffffffffffffffff1681526020019081526020016000206000828254611dc09190612e76565b92505081905550816002600083815260200190815260200160002060006101000a81548173ffffffffffffffffffffffffffffffffffffffff021916908373ffffffffffffffffffffffffffffffffffffffff160217905550808273ffffffffffffffffffffffffffffffffffffffff16600073ffffffffffffffffffffffffffffffffffffffff167fddf252ad1be2c89b69c2b068fc378daa952ba7f163c4a11628f55a4df523b3ef60405160405180910390a4611e8160008383611b0f565b5050565b6000808273ffffffffffffffffffffffffffffffffffffffff163b119050919050565b828054611eb490613041565b90600052602060002090601f016020900481019282611ed65760008555611f1d565b82601f10611eef57805160ff1916838001178555611f1d565b82800160010185558215611f1d579182015b82811115611f1c578251825591602001919060010190611f01565b5b509050611f2a9190611f2e565b5090565b5b80821115611f47576000816000905550600101611f2f565b5090565b6000611f5e611f5984612e02565b612ddd565b905082815260208101848484011115611f7657600080fd5b611f81848285612fff565b509392505050565b600081359050611f9881613d02565b92915050565b600081359050611fad81613d19565b92915050565b600081359050611fc281613d30565b92915050565b600081519050611fd781613d30565b92915050565b600082601f830112611fee57600080fd5b8135611ffe848260208601611f4b565b91505092915050565b60008135905061201681613d47565b92915050565b60006020828403121561202e57600080fd5b600061203c84828501611f89565b91505092915050565b6000806040838503121561205857600080fd5b600061206685828601611f89565b925050602061207785828601611f89565b9150509250929050565b60008060006060848603121561209657600080fd5b60006120a486828701611f89565b93505060206120b586828701611f89565b92505060406120c686828701612007565b9150509250925092565b600080600080608085870312156120e657600080fd5b60006120f487828801611f89565b945050602061210587828801611f89565b935050604061211687828801612007565b925050606085013567ffffffffffffffff81111561213357600080fd5b61213f87828801611fdd565b91505092959194509250565b6000806040838503121561215e57600080fd5b600061216c85828601611f89565b925050602061217d85828601611f9e565b9150509250929050565b6000806040838503121561219a57600080fd5b60006121a885828601611f89565b92505060206121b985828601612007565b9150509250929050565b6000602082840312156121d557600080fd5b60006121e384828501611fb3565b91505092915050565b6000602082840312156121fe57600080fd5b600061220c84828501611fc8565b91505092915050565b60006020828403121561222757600080fd5b600061223584828501612007565b91505092915050565b61224781612f8b565b82525050565b61225e61225982612f8b565b6130ed565b82525050565b61226d81612f9d565b82525050565b600061227e82612e33565b6122888185612e49565b935061229881856020860161300e565b6122a181613208565b840191505092915050565b60006122b782612e3e565b6122c18185612e5a565b93506122d181856020860161300e565b6122da81613208565b840191505092915050565b60006122f082612e3e565b6122fa8185612e6b565b935061230a81856020860161300e565b80840191505092915050565b6000612323602283612e6b565b915061232e82613226565b602282019050919050565b6000612346600683612e6b565b915061235182613275565b600682019050919050565b6000612369603283612e5a565b91506123748261329e565b604082019050919050565b600061238c600283612e6b565b9150612397826132ed565b600282019050919050565b60006123af602583612e5a565b91506123ba82613316565b604082019050919050565b60006123d2601c83612e5a565b91506123dd82613365565b602082019050919050565b60006123f5603083612e6b565b91506124008261338e565b603082019050919050565b6000612418606283612e6b565b9150612423826133dd565b606282019050919050565b600061243b601883612e6b565b915061244682613478565b601882019050919050565b600061245e602483612e5a565b9150612469826134a1565b604082019050919050565b6000612481601983612e5a565b915061248c826134f0565b602082019050919050565b60006124a4605383612e6b565b91506124af82613519565b605382019050919050565b60006124c7602c83612e5a565b91506124d28261358e565b604082019050919050565b60006124ea605383612e6b565b91506124f5826135dd565b605382019050919050565b600061250d600a83612e6b565b915061251882613652565b600a82019050919050565b6000612530603883612e5a565b915061253b8261367b565b604082019050919050565b6000612553600783612e6b565b915061255e826136ca565b600782019050919050565b6000612576600183612e6b565b9150612581826136f3565b600182019050919050565b6000612599602a83612e5a565b91506125a48261371c565b604082019050919050565b60006125bc602983612e5a565b91506125c78261376b565b604082019050919050565b60006125df602e83612e5a565b91506125ea826137ba565b604082019050919050565b6000612602600783612e6b565b915061260d82613809565b600782019050919050565b6000612625605383612e6b565b915061263082613832565b605382019050919050565b6000612648600783612e6b565b9150612653826138a7565b600782019050919050565b600061266b602083612e5a565b9150612676826138d0565b602082019050919050565b600061268e600183612e6b565b9150612699826138f9565b600182019050919050565b60006126b1603183612e5a565b91506126bc82613922565b604082019050919050565b60006126d4602c83612e5a565b91506126df82613971565b604082019050919050565b60006126f7600783612e6b565b9150612702826139c0565b600782019050919050565b600061271a602f83612e5a565b9150612725826139e9565b604082019050919050565b600061273d600183612e6b565b915061274882613a38565b600182019050919050565b6000612760602183612e5a565b915061276b82613a61565b604082019050919050565b6000612783604a83612e6b565b915061278e82613ab0565b604a82019050919050565b60006127a6601d83612e6b565b91506127b182613b25565b601d82019050919050565b60006127c9605383612e6b565b91506127d482613b4e565b605382019050919050565b60006127ec603183612e5a565b91506127f782613bc3565b604082019050919050565b600061280f600a83612e6b565b915061281a82613c12565b600a82019050919050565b6000612832605383612e6b565b915061283d82613c3b565b605382019050919050565b6000612855600683612e6b565b915061286082613cb0565b600682019050919050565b6000612878601a83612e6b565b915061288382613cd9565b601a82019050919050565b61289781612ff5565b82525050565b6128ae6128a982612ff5565b613111565b82525050565b60006128c082856122e5565b91506128cc82846122e5565b91508190509392505050565b60006128e38261240b565b91506128ee82612776565b91506128f9826123e8565b9150612904826124dd565b915061290f826125f5565b915061291a8261263b565b915061292582612497565b9150612930826126ea565b915061293c82876122e5565b91506129478261263b565b9150612952826127bc565b915061295d82612546565b915061296982866122e5565b91506129748261263b565b915061297f82612825565b915061298a82612500565b915061299682856122e5565b91506129a18261263b565b91506129ac82612618565b91506129b782612339565b91506129c382846122e5565b91506129ce8261263b565b91506129d982612848565b915081905095945050505050565b60006129f282612730565b91506129fd8261242e565b9150612a0982856122e5565b9150612a148261237f565b9150612a1f82612316565b9150612a2a82612802565b9150612a3682846122e5565b9150612a4182612569565b9150612a4c82612681565b91508190509392505050565b6000612a6382612799565b9150612a6f82846122e5565b915081905092915050565b6000612a858261286b565b9150612a9182846122e5565b915081905092915050565b6000612aa8828661289d565b602082019150612ab8828561289d565b602082019150612ac8828461224d565b601482019150819050949350505050565b6000602082019050612aee600083018461223e565b92915050565b6000608082019050612b09600083018761223e565b612b16602083018661223e565b612b23604083018561288e565b8181036060830152612b358184612273565b905095945050505050565b6000602082019050612b556000830184612264565b92915050565b60006020820190508181036000830152612b7581846122ac565b905092915050565b60006020820190508181036000830152612b968161235c565b9050919050565b60006020820190508181036000830152612bb6816123a2565b9050919050565b60006020820190508181036000830152612bd6816123c5565b9050919050565b60006020820190508181036000830152612bf681612451565b9050919050565b60006020820190508181036000830152612c1681612474565b9050919050565b60006020820190508181036000830152612c36816124ba565b9050919050565b60006020820190508181036000830152612c5681612523565b9050919050565b60006020820190508181036000830152612c768161258c565b9050919050565b60006020820190508181036000830152612c96816125af565b9050919050565b60006020820190508181036000830152612cb6816125d2565b9050919050565b60006020820190508181036000830152612cd68161265e565b9050919050565b60006020820190508181036000830152612cf6816126a4565b9050919050565b60006020820190508181036000830152612d16816126c7565b9050919050565b60006020820190508181036000830152612d368161270d565b9050919050565b60006020820190508181036000830152612d5681612753565b9050919050565b60006020820190508181036000830152612d76816127df565b9050919050565b6000602082019050612d92600083018461288e565b92915050565b6000608082019050612dad600083018761288e565b612dba602083018661288e565b612dc7604083018561288e565b612dd4606083018461288e565b95945050505050565b6000612de7612df8565b9050612df38282613073565b919050565b6000604051905090565b600067ffffffffffffffff821115612e1d57612e1c6131d9565b5b612e2682613208565b9050602081019050919050565b600081519050919050565b600081519050919050565b600082825260208201905092915050565b600082825260208201905092915050565b600081905092915050565b6000612e8182612ff5565b9150612e8c83612ff5565b9250827fffffffffffffffffffffffffffffffffffffffffffffffffffffffffffffffff03821115612ec157612ec061314c565b5b828201905092915050565b6000612ed782612ff5565b9150612ee283612ff5565b925082612ef257612ef161317b565b5b828204905092915050565b6000612f0882612ff5565b9150612f1383612ff5565b9250817fffffffffffffffffffffffffffffffffffffffffffffffffffffffffffffffff0483118215151615612f4c57612f4b61314c565b5b828202905092915050565b6000612f6282612ff5565b9150612f6d83612ff5565b925082821015612f8057612f7f61314c565b5b828203905092915050565b6000612f9682612fd5565b9050919050565b60008115159050919050565b60007fffffffff0000000000000000000000000000000000000000000000000000000082169050919050565b600073ffffffffffffffffffffffffffffffffffffffff82169050919050565b6000819050919050565b82818337600083830152505050565b60005b8381101561302c578082015181840152602081019050613011565b8381111561303b576000848401525b50505050565b6000600282049050600182168061305957607f821691505b6020821081141561306d5761306c6131aa565b5b50919050565b61307c82613208565b810181811067ffffffffffffffff8211171561309b5761309a6131d9565b5b80604052505050565b60006130af82612ff5565b91507fffffffffffffffffffffffffffffffffffffffffffffffffffffffffffffffff8214156130e2576130e161314c565b5b600182019050919050565b60006130f8826130ff565b9050919050565b600061310a82613219565b9050919050565b6000819050919050565b600061312682612ff5565b915061313183612ff5565b9250826131415761314061317b565b5b828206905092915050565b7f4e487b7100000000000000000000000000000000000000000000000000000000600052601160045260246000fd5b7f4e487b7100000000000000000000000000000000000000000000000000000000600052601260045260246000fd5b7f4e487b7100000000000000000000000000000000000000000000000000000000600052602260045260246000fd5b7f4e487b7100000000000000000000000000000000000000000000000000000000600052604160045260246000fd5b6000601f19601f8301169050919050565b60008160601b9050919050565b7f226465736372697074696f6e223a2022426174746c6573206f6e20636861696e60008201527f222c000000000000000000000000000000000000000000000000000000000000602082015250565b7f4c6966653a200000000000000000000000000000000000000000000000000000600082015250565b7f4552433732313a207472616e7366657220746f206e6f6e20455243373231526560008201527f63656976657220696d706c656d656e7465720000000000000000000000000000602082015250565b7f222c000000000000000000000000000000000000000000000000000000000000600082015250565b7f4552433732313a207472616e736665722066726f6d20696e636f72726563742060008201527f6f776e6572000000000000000000000000000000000000000000000000000000602082015250565b7f4552433732313a20746f6b656e20616c7265616479206d696e74656400000000600082015250565b7f3c726563742077696474683d223130302522206865696768743d22313030252260008201527f2066696c6c3d22626c61636b22202f3e00000000000000000000000000000000602082015250565b7f3c73766720786d6c6e733d22687474703a2f2f7777772e77332e6f72672f323060008201527f30302f73766722207072657365727665417370656374526174696f3d22784d6960208201527f6e594d696e206d656574222076696577426f783d22302030203335302033353060408201527f223e000000000000000000000000000000000000000000000000000000000000606082015250565b7f226e616d65223a2022436861696e20426174746c657320230000000000000000600082015250565b7f4552433732313a207472616e7366657220746f20746865207a65726f2061646460008201527f7265737300000000000000000000000000000000000000000000000000000000602082015250565b7f4552433732313a20617070726f766520746f2063616c6c657200000000000000600082015250565b7f3c7465787420783d223530252220793d223430252220636c6173733d2262617360008201527f652220646f6d696e616e742d626173656c696e653d226d6964646c652220746560208201527f78742d616e63686f723d226d6964646c65223e00000000000000000000000000604082015250565b7f4552433732313a206f70657261746f7220717565727920666f72206e6f6e657860008201527f697374656e7420746f6b656e0000000000000000000000000000000000000000602082015250565b7f3c7465787420783d223530252220793d223330252220636c6173733d2262617360008201527f652220646f6d696e616e742d626173656c696e653d226d6964646c652220746560208201527f78742d616e63686f723d226d6964646c65223e00000000000000000000000000604082015250565b7f537472656e6774683a2000000000000000000000000000000000000000000000600082015250565b7f4552433732313a20617070726f76652063616c6c6572206973206e6f74206f7760008201527f6e6572206e6f7220617070726f76656420666f7220616c6c0000000000000000602082015250565b7f53706565643a2000000000000000000000000000000000000000000000000000600082015250565b7f2200000000000000000000000000000000000000000000000000000000000000600082015250565b7f4552433732313a2062616c616e636520717565727920666f7220746865207a6560008201527f726f206164647265737300000000000000000000000000000000000000000000602082015250565b7f4552433732313a206f776e657220717565727920666f72206e6f6e657869737460008201527f656e7420746f6b656e0000000000000000000000000000000000000000000000602082015250565b7f45524337323155524953746f726167653a2055524920736574206f66206e6f6e60008201527f6578697374656e7420746f6b656e000000000000000000000000000000000000602082015250565b7f57617272696f7200000000000000000000000000000000000000000000000000600082015250565b7f3c7465787420783d223530252220793d223730252220636c6173733d2262617360008201527f652220646f6d696e616e742d626173656c696e653d226d6964646c652220746560208201527f78742d616e63686f723d226d6964646c65223e00000000000000000000000000604082015250565b7f3c2f746578743e00000000000000000000000000000000000000000000000000600082015250565b7f4552433732313a206d696e7420746f20746865207a65726f2061646472657373600082015250565b7f7d00000000000000000000000000000000000000000000000000000000000000600082015250565b7f45524337323155524953746f726167653a2055524920717565727920666f722060008201527f6e6f6e6578697374656e7420746f6b656e000000000000000000000000000000602082015250565b7f4552433732313a20617070726f76656420717565727920666f72206e6f6e657860008201527f697374656e7420746f6b656e0000000000000000000000000000000000000000602082015250565b7f4c6576656c3a2000000000000000000000000000000000000000000000000000600082015250565b7f4552433732314d657461646174613a2055524920717565727920666f72206e6f60008201527f6e6578697374656e7420746f6b656e0000000000000000000000000000000000602082015250565b7f7b00000000000000000000000000000000000000000000000000000000000000600082015250565b7f4552433732313a20617070726f76616c20746f2063757272656e74206f776e6560008201527f7200000000000000000000000000000000000000000000000000000000000000602082015250565b7f3c7374796c653e2e62617365207b2066696c6c3a2077686974653b20666f6e7460008201527f2d66616d696c793a2073657269663b20666f6e742d73697a653a20313470783b60208201527f207d3c2f7374796c653e00000000000000000000000000000000000000000000604082015250565b7f646174613a6170706c69636174696f6e2f6a736f6e3b6261736536342c000000600082015250565b7f3c7465787420783d223530252220793d223530252220636c6173733d2262617360008201527f652220646f6d696e616e742d626173656c696e653d226d6964646c652220746560208201527f78742d616e63686f723d226d6964646c65223e00000000000000000000000000604082015250565b7f4552433732313a207472616e736665722063616c6c6572206973206e6f74206f60008201527f776e6572206e6f7220617070726f766564000000000000000000000000000000602082015250565b7f22696d616765223a202200000000000000000000000000000000000000000000600082015250565b7f3c7465787420783d223530252220793d223630252220636c6173733d2262617360008201527f652220646f6d696e616e742d626173656c696e653d226d6964646c652220746560208201527f78742d616e63686f723d226d6964646c65223e00000000000000000000000000604082015250565b7f3c2f7376673e0000000000000000000000000000000000000000000000000000600082015250565b7f646174613a696d6167652f7376672b786d6c3b6261736536342c000000000000600082015250565b613d0b81612f8b565b8114613d1657600080fd5b50565b613d2281612f9d565b8114613d2d57600080fd5b50565b613d3981612fa9565b8114613d4457600080fd5b50565b613d5081612ff5565b8114613d5b57600080fd5b5056fe4142434445464748494a4b4c4d4e4f505152535455565758595a6162636465666768696a6b6c6d6e6f707172737475767778797a303132333435363738392b2fa26469706673582212207d4f1ff0cf4b0fda2a87f11685832cf9938de4bb15988fb06b4d4505183ffebb64736f6c63430008040033",
  "linkReferences": {},
  "deployedLinkReferences": {}
}